{
  "contractName": "PasswordManager",
  "abi": [
    {
      "inputs": [
        {
          "internalType": "string",
          "name": "_website",
          "type": "string"
        },
        {
          "internalType": "string",
          "name": "_username",
          "type": "string"
        },
        {
          "internalType": "string",
          "name": "_password",
          "type": "string"
        },
        {
          "internalType": "string",
          "name": "_notes",
          "type": "string"
        }
      ],
      "name": "addPassword",
      "outputs": [],
      "stateMutability": "nonpayable",
      "type": "function"
    },
    {
      "inputs": [
        {
          "internalType": "uint256",
          "name": "index",
          "type": "uint256"
        }
      ],
      "name": "getPassword",
      "outputs": [
        {
          "internalType": "string",
          "name": "",
          "type": "string"
        },
        {
          "internalType": "string",
          "name": "",
          "type": "string"
        },
        {
          "internalType": "string",
          "name": "",
          "type": "string"
        },
        {
          "internalType": "string",
          "name": "",
          "type": "string"
        }
      ],
      "stateMutability": "view",
      "type": "function",
      "constant": true
    },
    {
      "inputs": [],
      "name": "getPasswordCount",
      "outputs": [
        {
          "internalType": "uint256",
          "name": "",
          "type": "uint256"
        }
      ],
      "stateMutability": "view",
      "type": "function",
      "constant": true
    },
    {
      "inputs": [
        {
          "internalType": "uint256",
          "name": "index",
          "type": "uint256"
        },
        {
          "internalType": "string",
          "name": "_website",
          "type": "string"
        },
        {
          "internalType": "string",
          "name": "_username",
          "type": "string"
        },
        {
          "internalType": "string",
          "name": "_password",
          "type": "string"
        },
        {
          "internalType": "string",
          "name": "_notes",
          "type": "string"
        }
      ],
      "name": "updatePassword",
      "outputs": [],
      "stateMutability": "nonpayable",
      "type": "function"
    },
    {
      "inputs": [
        {
          "internalType": "uint256",
          "name": "index",
          "type": "uint256"
        }
      ],
      "name": "deletePassword",
      "outputs": [],
      "stateMutability": "nonpayable",
      "type": "function"
    }
  ],
  "bytecode": "0x608060405234801561001057600080fd5b506113a8806100206000396000f3fe608060405234801561001057600080fd5b50600436106100575760003560e01c80631765147e1461005c5780638cbf2ace14610078578063c3b3863c14610096578063c48ccb12146100b2578063f38c6bb6146100ce575b600080fd5b61007660048036038101906100719190610abe565b610101565b005b6100806101ef565b60405161008d9190610bae565b60405180910390f35b6100b060048036038101906100ab9190610bf5565b610238565b005b6100cc60048036038101906100c79190610c22565b6104f3565b005b6100e860048036038101906100e39190610bf5565b610628565b6040516100f89493929190610d8c565b60405180910390f35b600060405180608001604052808681526020018581526020018481526020018381525090506000803373ffffffffffffffffffffffffffffffffffffffff1673ffffffffffffffffffffffffffffffffffffffff16815260200190815260200160002081908060018154018082558091505060019003906000526020600020906004020160009091909190915060008201518160000190816101a39190610ff9565b5060208201518160010190816101b99190610ff9565b5060408201518160020190816101cf9190610ff9565b5060608201518160030190816101e59190610ff9565b5050505050505050565b60008060003373ffffffffffffffffffffffffffffffffffffffff1673ffffffffffffffffffffffffffffffffffffffff16815260200190815260200160002080549050905090565b6000803373ffffffffffffffffffffffffffffffffffffffff1673ffffffffffffffffffffffffffffffffffffffff1681526020019081526020016000208054905081106102bb576040517f08c379a00000000000000000000000000000000000000000000000000000000081526004016102b290611117565b60405180910390fd5b60008190505b60016000803373ffffffffffffffffffffffffffffffffffffffff1673ffffffffffffffffffffffffffffffffffffffff1681526020019081526020016000208054905061030f9190611166565b811015610448576000803373ffffffffffffffffffffffffffffffffffffffff1673ffffffffffffffffffffffffffffffffffffffff168152602001908152602001600020600182610361919061119a565b81548110610372576103716111ce565b5b90600052602060002090600402016000803373ffffffffffffffffffffffffffffffffffffffff1673ffffffffffffffffffffffffffffffffffffffff16815260200190815260200160002082815481106103d0576103cf6111ce565b5b9060005260206000209060040201600082018160000190816103f29190611213565b50600182018160010190816104079190611213565b506002820181600201908161041c9190611213565b50600382018160030190816104319190611213565b509050508080610440906112fb565b9150506102c1565b506000803373ffffffffffffffffffffffffffffffffffffffff1673ffffffffffffffffffffffffffffffffffffffff16815260200190815260200160002080548061049757610496611343565b5b6001900381819060005260206000209060040201600080820160006104bc9190610907565b6001820160006104cc9190610907565b6002820160006104dc9190610907565b6003820160006104ec9190610907565b5050905550565b6000803373ffffffffffffffffffffffffffffffffffffffff1673ffffffffffffffffffffffffffffffffffffffff168152602001908152602001600020805490508510610576576040517f08c379a000000000000000000000000000000000000000000000000000000000815260040161056d90611117565b60405180910390fd5b60008060003373ffffffffffffffffffffffffffffffffffffffff1673ffffffffffffffffffffffffffffffffffffffff16815260200190815260200160002086815481106105c8576105c76111ce565b5b90600052602060002090600402019050848160000190816105e99190610ff9565b50838160010190816105fb9190610ff9565b508281600201908161060d9190610ff9565b508181600301908161061f9190610ff9565b50505050505050565b60608060608060008060003373ffffffffffffffffffffffffffffffffffffffff1673ffffffffffffffffffffffffffffffffffffffff16815260200190815260200160002086815481106106805761067f6111ce565b5b90600052602060002090600402016040518060800160405290816000820180546106a990610e1c565b80601f01602080910402602001604051908101604052809291908181526020018280546106d590610e1c565b80156107225780601f106106f757610100808354040283529160200191610722565b820191906000526020600020905b81548152906001019060200180831161070557829003601f168201915b5050505050815260200160018201805461073b90610e1c565b80601f016020809104026020016040519081016040528092919081815260200182805461076790610e1c565b80156107b45780601f10610789576101008083540402835291602001916107b4565b820191906000526020600020905b81548152906001019060200180831161079757829003601f168201915b505050505081526020016002820180546107cd90610e1c565b80601f01602080910402602001604051908101604052809291908181526020018280546107f990610e1c565b80156108465780601f1061081b57610100808354040283529160200191610846565b820191906000526020600020905b81548152906001019060200180831161082957829003601f168201915b5050505050815260200160038201805461085f90610e1c565b80601f016020809104026020016040519081016040528092919081815260200182805461088b90610e1c565b80156108d85780601f106108ad576101008083540402835291602001916108d8565b820191906000526020600020905b8154815290600101906020018083116108bb57829003601f168201915b505050505081525050905080600001518160200151826040015183606001519450945094509450509193509193565b50805461091390610e1c565b6000825580601f106109255750610944565b601f0160209004906000526020600020908101906109439190610947565b5b50565b5b80821115610960576000816000905550600101610948565b5090565b6000604051905090565b600080fd5b600080fd5b600080fd5b600080fd5b6000601f19601f8301169050919050565b7f4e487b7100000000000000000000000000000000000000000000000000000000600052604160045260246000fd5b6109cb82610982565b810181811067ffffffffffffffff821117156109ea576109e9610993565b5b80604052505050565b60006109fd610964565b9050610a0982826109c2565b919050565b600067ffffffffffffffff821115610a2957610a28610993565b5b610a3282610982565b9050602081019050919050565b82818337600083830152505050565b6000610a61610a5c84610a0e565b6109f3565b905082815260208101848484011115610a7d57610a7c61097d565b5b610a88848285610a3f565b509392505050565b600082601f830112610aa557610aa4610978565b5b8135610ab5848260208601610a4e565b91505092915050565b60008060008060808587031215610ad857610ad761096e565b5b600085013567ffffffffffffffff811115610af657610af5610973565b5b610b0287828801610a90565b945050602085013567ffffffffffffffff811115610b2357610b22610973565b5b610b2f87828801610a90565b935050604085013567ffffffffffffffff811115610b5057610b4f610973565b5b610b5c87828801610a90565b925050606085013567ffffffffffffffff811115610b7d57610b7c610973565b5b610b8987828801610a90565b91505092959194509250565b6000819050919050565b610ba881610b95565b82525050565b6000602082019050610bc36000830184610b9f565b92915050565b610bd281610b95565b8114610bdd57600080fd5b50565b600081359050610bef81610bc9565b92915050565b600060208284031215610c0b57610c0a61096e565b5b6000610c1984828501610be0565b91505092915050565b600080600080600060a08688031215610c3e57610c3d61096e565b5b6000610c4c88828901610be0565b955050602086013567ffffffffffffffff811115610c6d57610c6c610973565b5b610c7988828901610a90565b945050604086013567ffffffffffffffff811115610c9a57610c99610973565b5b610ca688828901610a90565b935050606086013567ffffffffffffffff811115610cc757610cc6610973565b5b610cd388828901610a90565b925050608086013567ffffffffffffffff811115610cf457610cf3610973565b5b610d0088828901610a90565b9150509295509295909350565b600081519050919050565b600082825260208201905092915050565b60005b83811015610d47578082015181840152602081019050610d2c565b60008484015250505050565b6000610d5e82610d0d565b610d688185610d18565b9350610d78818560208601610d29565b610d8181610982565b840191505092915050565b60006080820190508181036000830152610da68187610d53565b90508181036020830152610dba8186610d53565b90508181036040830152610dce8185610d53565b90508181036060830152610de28184610d53565b905095945050505050565b7f4e487b7100000000000000000000000000000000000000000000000000000000600052602260045260246000fd5b60006002820490506001821680610e3457607f821691505b602082108103610e4757610e46610ded565b5b50919050565b60008190508160005260206000209050919050565b60006020601f8301049050919050565b600082821b905092915050565b600060088302610eaf7fffffffffffffffffffffffffffffffffffffffffffffffffffffffffffffffff82610e72565b610eb98683610e72565b95508019841693508086168417925050509392505050565b6000819050919050565b6000610ef6610ef1610eec84610b95565b610ed1565b610b95565b9050919050565b6000819050919050565b610f1083610edb565b610f24610f1c82610efd565b848454610e7f565b825550505050565b600090565b610f39610f2c565b610f44818484610f07565b505050565b5b81811015610f6857610f5d600082610f31565b600181019050610f4a565b5050565b601f821115610fad57610f7e81610e4d565b610f8784610e62565b81016020851015610f96578190505b610faa610fa285610e62565b830182610f49565b50505b505050565b600082821c905092915050565b6000610fd060001984600802610fb2565b1980831691505092915050565b6000610fe98383610fbf565b9150826002028217905092915050565b61100282610d0d565b67ffffffffffffffff81111561101b5761101a610993565b5b6110258254610e1c565b611030828285610f6c565b600060209050601f8311600181146110635760008415611051578287015190505b61105b8582610fdd565b8655506110c3565b601f19841661107186610e4d565b60005b8281101561109957848901518255600182019150602085019450602081019050611074565b868310156110b657848901516110b2601f891682610fbf565b8355505b6001600288020188555050505b505050505050565b7f496e646578206f7574206f662072616e67650000000000000000000000000000600082015250565b6000611101601283610d18565b915061110c826110cb565b602082019050919050565b60006020820190508181036000830152611130816110f4565b9050919050565b7f4e487b7100000000000000000000000000000000000000000000000000000000600052601160045260246000fd5b600061117182610b95565b915061117c83610b95565b925082820390508181111561119457611193611137565b5b92915050565b60006111a582610b95565b91506111b083610b95565b92508282019050808211156111c8576111c7611137565b5b92915050565b7f4e487b7100000000000000000000000000000000000000000000000000000000600052603260045260246000fd5b60008154905061120c81610e1c565b9050919050565b8181036112215750506112f9565b61122a826111fd565b67ffffffffffffffff81111561124357611242610993565b5b61124d8254610e1c565b611258828285610f6c565b6000601f8311600181146112875760008415611275578287015490505b61127f8582610fdd565b8655506112f2565b601f19841661129587610e4d565b96506112a086610e4d565b60005b828110156112c8578489015482556001820191506001850194506020810190506112a3565b868310156112e557848901546112e1601f891682610fbf565b8355505b6001600288020188555050505b5050505050505b565b600061130682610b95565b91507fffffffffffffffffffffffffffffffffffffffffffffffffffffffffffffffff820361133857611337611137565b5b600182019050919050565b7f4e487b7100000000000000000000000000000000000000000000000000000000600052603160045260246000fdfea2646970667358221220fd990196140b6f34ebec79153cedbf22e6b8e41599024a6aaf2ca23a3b9024af64736f6c63430008130033",
  "immutableReferences": {},
  "source": "pragma solidity ^0.8.0;\n\ncontract PasswordManager {\n\n    struct Password {\n        string website;\n        string username;\n        string password;\n        string notes;\n    }\n\n    mapping (address => Password[]) private passwordList;\n\n    function addPassword(string memory _website, string memory _username, string memory _password, string memory _notes) public {\n        Password memory newPass = Password(_website, _username, _password, _notes);\n        passwordList[msg.sender].push(newPass);\n    }\n\n    function getPassword(uint index) public view returns (string memory, string memory, string memory, string memory) {\n        Password memory pass = passwordList[msg.sender][index];\n        return (pass.website, pass.username, pass.password, pass.notes);\n    }\n\n    function getPasswordCount() public view returns (uint) {\n        return passwordList[msg.sender].length;\n    }\n\n    function updatePassword(uint index, string memory _website, string memory _username, string memory _password, string memory _notes) public {\n        require(index < passwordList[msg.sender].length, \"Index out of range\");\n        Password storage pass = passwordList[msg.sender][index];\n        pass.website = _website;\n        pass.username = _username;\n        pass.password = _password;\n        pass.notes = _notes;\n    }\n\n    function deletePassword(uint index) public {\n        require(index < passwordList[msg.sender].length, \"Index out of range\");\n        for (uint i = index; i < passwordList[msg.sender].length-1; i++){\n            passwordList[msg.sender][i] = passwordList[msg.sender][i+1];\n        }\n        passwordList[msg.sender].pop();\n    }\n}\n\n\n// pragma solidity ^0.4.2;\n// // SPDX-License-Identifier: MIT\n// import './zeppelin/lifecycle/Killable.sol';\n\n// contract Authentication is Killable {\n//   struct User {\n//     bytes32 name;\n//   }\n\n//   mapping (address => User) private users;\n\n//   uint private id; // Stores user id temporarily\n\n//   modifier onlyExistingUser {\n//     // Check if user exists or terminate\n\n//     require(!(users[msg.sender].name == 0x0));\n//     _;\n//   }\n\n//   modifier onlyValidName(bytes32 name) {\n//     // Only valid names allowed\n\n//     require(!(name == 0x0));\n//     _;\n//   }\n\n//   function login() constant\n//   public\n//   onlyExistingUser\n//   returns (bytes32) {\n//     return (users[msg.sender].name);\n//   }\n\n//   function signup(bytes32 name)\n//   public\n//   payable\n//   onlyValidName(name)\n//   returns (bytes32) {\n//     // Check if user exists.\n//     // If yes, return user name.\n//     // If no, check if name was sent.\n//     // If yes, create and return user.\n\n//     if (users[msg.sender].name == 0x0)\n//     {\n//         users[msg.sender].name = name;\n\n//         return (users[msg.sender].name);\n//     }\n\n//     return (users[msg.sender].name);\n//   }\n\n//   function update(bytes32 name)\n//   public\n//   payable\n//   onlyValidName(name)\n//   onlyExistingUser\n//   returns (bytes32) {\n//     // Update user name.\n\n//     if (users[msg.sender].name != 0x0)\n//     {\n//         users[msg.sender].name = name;\n\n//         return (users[msg.sender].name);\n//     }\n//   }\n// }\n",
  "sourcePath": "C:\\Users\\MSI\\password-eth\\contracts\\PasswordManager.sol",
  "compiler": {
    "name": "solc",
    "version": "0.8.19+commit.7dd6d404.Emscripten.clang"
  },
  "schemaVersion": "3.4.13",
  "updatedAt": "2023-03-16T09:45:46.421Z",
  "networkType": "ethereum",
  "devdoc": {
    "kind": "dev",
    "methods": {},
    "version": 1
  },
  "userdoc": {
    "kind": "user",
    "methods": {},
    "version": 1
  }
}